{
  "contractName": "EvidenceContract",
  "abi": [
    {
      "inputs": [
        {
          "internalType": "string",
          "name": "",
          "type": "string"
        }
      ],
      "name": "evidences",
      "outputs": [
        {
          "internalType": "string",
          "name": "hash",
          "type": "string"
        },
        {
          "internalType": "uint256",
          "name": "timestamp",
          "type": "uint256"
        }
      ],
      "stateMutability": "view",
      "type": "function",
      "constant": true
    },
    {
      "inputs": [
        {
          "internalType": "string",
          "name": "caseId",
          "type": "string"
        },
        {
          "internalType": "string",
          "name": "hash",
          "type": "string"
        }
      ],
      "name": "storeEvidence",
      "outputs": [],
      "stateMutability": "nonpayable",
      "type": "function"
    },
    {
      "inputs": [
        {
          "internalType": "string",
          "name": "caseId",
          "type": "string"
        }
      ],
      "name": "getEvidence",
      "outputs": [
        {
          "internalType": "string",
          "name": "",
          "type": "string"
        },
        {
          "internalType": "uint256",
          "name": "",
          "type": "uint256"
        }
      ],
      "stateMutability": "view",
      "type": "function",
      "constant": true
    }
  ],
  "bytecode": "0x608060405234801561001057600080fd5b506106ea806100206000396000f3fe608060405234801561001057600080fd5b50600436106100415760003560e01c80634dd630301461004657806353621b6914610077578063b16c6ee714610093575b600080fd5b610060600480360381019061005b91906103d2565b6100c4565b60405161006e92919061050f565b60405180910390f35b610091600480360381019061008c9190610413565b610186565b005b6100ad60048036038101906100a891906103d2565b6101e7565b6040516100bb92919061050f565b60405180910390f35b6000818051602081018201805184825260208301602085012081835280955050505050506000915090508060000180546100fd90610613565b80601f016020809104026020016040519081016040528092919081815260200182805461012990610613565b80156101765780601f1061014b57610100808354040283529160200191610176565b820191906000526020600020905b81548152906001019060200180831161015957829003601f168201915b5050505050908060010154905082565b6040518060400160405280828152602001428152506000836040516101ab91906104f8565b908152602001604051809103902060008201518160000190805190602001906101d59291906102c7565b50602082015181600101559050505050565b60606000806000846040516101fc91906104f8565b908152602001604051809103902060405180604001604052908160008201805461022590610613565b80601f016020809104026020016040519081016040528092919081815260200182805461025190610613565b801561029e5780601f106102735761010080835404028352916020019161029e565b820191906000526020600020905b81548152906001019060200180831161028157829003601f168201915b505050505081526020016001820154815250509050806000015181602001519250925050915091565b8280546102d390610613565b90600052602060002090601f0160209004810192826102f5576000855561033c565b82601f1061030e57805160ff191683800117855561033c565b8280016001018555821561033c579182015b8281111561033b578251825591602001919060010190610320565b5b509050610349919061034d565b5090565b5b8082111561036657600081600090555060010161034e565b5090565b600061037d61037884610570565b61053f565b90508281526020810184848401111561039557600080fd5b6103a08482856105d1565b509392505050565b600082601f8301126103b957600080fd5b81356103c984826020860161036a565b91505092915050565b6000602082840312156103e457600080fd5b600082013567ffffffffffffffff8111156103fe57600080fd5b61040a848285016103a8565b91505092915050565b6000806040838503121561042657600080fd5b600083013567ffffffffffffffff81111561044057600080fd5b61044c858286016103a8565b925050602083013567ffffffffffffffff81111561046957600080fd5b610475858286016103a8565b9150509250929050565b600061048a826105a0565b61049481856105ab565b93506104a48185602086016105e0565b6104ad816106a3565b840191505092915050565b60006104c3826105a0565b6104cd81856105bc565b93506104dd8185602086016105e0565b80840191505092915050565b6104f2816105c7565b82525050565b600061050482846104b8565b915081905092915050565b60006040820190508181036000830152610529818561047f565b905061053860208301846104e9565b9392505050565b6000604051905081810181811067ffffffffffffffff8211171561056657610565610674565b5b8060405250919050565b600067ffffffffffffffff82111561058b5761058a610674565b5b601f19601f8301169050602081019050919050565b600081519050919050565b600082825260208201905092915050565b600081905092915050565b6000819050919050565b82818337600083830152505050565b60005b838110156105fe5780820151818401526020810190506105e3565b8381111561060d576000848401525b50505050565b6000600282049050600182168061062b57607f821691505b6020821081141561063f5761063e610645565b5b50919050565b7f4e487b7100000000000000000000000000000000000000000000000000000000600052602260045260246000fd5b7f4e487b7100000000000000000000000000000000000000000000000000000000600052604160045260246000fd5b6000601f19601f830116905091905056fea2646970667358221220b36c37962232ef5780b0572a644536d758c679052dfb91dffa251344240f81dc64736f6c63430008000033",
  "immutableReferences": {},
  "source": "//  SPDX-License-Identifier: MIT\r\npragma solidity ^0.8.0;\r\n\r\ncontract EvidenceContract {\r\n    struct Evidence {\r\n        string hash;\r\n        uint timestamp;\r\n    }\r\n\r\n    mapping(string => Evidence) public evidences;\r\n\r\n    function storeEvidence(string memory caseId, string memory hash) public {\r\n        evidences[caseId] = Evidence(hash, block.timestamp);\r\n    }\r\n\r\n    function getEvidence(string memory caseId) public view returns (string memory, uint) {\r\n        Evidence memory ev = evidences[caseId];\r\n        return (ev.hash, ev.timestamp);\r\n    }\r\n}",
  "sourcePath": "C:\\Users\\asmita baghsavar\\evidence-blockchain\\contracts\\EvidenceContract.sol",
  "compiler": {
    "name": "solc",
    "version": "0.8.0+commit.c7dfd78e.Emscripten.clang"
  },
  "schemaVersion": "3.4.16",
  "updatedAt": "2025-10-28T12:04:23.055Z",
  "networkType": "ethereum",
  "devdoc": {
    "kind": "dev",
    "methods": {},
    "version": 1
  },
  "userdoc": {
    "kind": "user",
    "methods": {},
    "version": 1
  }
}