{
  "contractName": "Evidence",
  "abi": [
    {
      "inputs": [
        {
          "internalType": "address",
          "name": "",
          "type": "address"
        },
        {
          "internalType": "uint256",
          "name": "",
          "type": "uint256"
        }
      ],
      "name": "evidences",
      "outputs": [
        {
          "internalType": "string",
          "name": "hash",
          "type": "string"
        },
        {
          "internalType": "string",
          "name": "description",
          "type": "string"
        },
        {
          "internalType": "uint256",
          "name": "timestamp",
          "type": "uint256"
        }
      ],
      "stateMutability": "view",
      "type": "function"
    },
    {
      "inputs": [
        {
          "internalType": "string",
          "name": "_hash",
          "type": "string"
        },
        {
          "internalType": "string",
          "name": "_description",
          "type": "string"
        }
      ],
      "name": "submitEvidence",
      "outputs": [],
      "stateMutability": "nonpayable",
      "type": "function"
    },
    {
      "inputs": [
        {
          "internalType": "address",
          "name": "user",
          "type": "address"
        }
      ],
      "name": "getEvidenceCount",
      "outputs": [
        {
          "internalType": "uint256",
          "name": "",
          "type": "uint256"
        }
      ],
      "stateMutability": "view",
      "type": "function"
    },
    {
      "inputs": [
        {
          "internalType": "address",
          "name": "user",
          "type": "address"
        },
        {
          "internalType": "uint256",
          "name": "index",
          "type": "uint256"
        }
      ],
      "name": "getEvidence",
      "outputs": [
        {
          "internalType": "string",
          "name": "",
          "type": "string"
        },
        {
          "internalType": "string",
          "name": "",
          "type": "string"
        },
        {
          "internalType": "uint256",
          "name": "",
          "type": "uint256"
        }
      ],
      "stateMutability": "view",
      "type": "function"
    }
  ],
  "bytecode": "0x608060405234801561000f575f80fd5b50610bc38061001d5f395ff3fe608060405234801561000f575f80fd5b506004361061004a575f3560e01c80638bb6d1331461004e5780638c0d89cd1461007e578063b254ee4a1461009a578063ca8b4465146100cc575b5f80fd5b61006860048036038101906100639190610564565b6100fe565b60405161007591906105a7565b60405180910390f35b610098600480360381019061009391906106fc565b610146565b005b6100b460048036038101906100af919061079c565b6101fd565b6040516100c393929190610854565b60405180910390f35b6100e660048036038101906100e1919061079c565b6103ae565b6040516100f593929190610854565b60405180910390f35b5f805f8373ffffffffffffffffffffffffffffffffffffffff1673ffffffffffffffffffffffffffffffffffffffff1681526020019081526020015f20805490509050919050565b5f803373ffffffffffffffffffffffffffffffffffffffff1673ffffffffffffffffffffffffffffffffffffffff1681526020019081526020015f20604051806060016040528084815260200183815260200142815250908060018154018082558091505060019003905f5260205f2090600302015f909190919091505f820151815f0190816101d69190610a91565b5060208201518160010190816101ec9190610a91565b506040820151816002015550505050565b6060805f805f808773ffffffffffffffffffffffffffffffffffffffff1673ffffffffffffffffffffffffffffffffffffffff1681526020019081526020015f2085815481106102505761024f610b60565b5b905f5260205f2090600302016040518060600160405290815f82018054610276906108c4565b80601f01602080910402602001604051908101604052809291908181526020018280546102a2906108c4565b80156102ed5780601f106102c4576101008083540402835291602001916102ed565b820191905f5260205f20905b8154815290600101906020018083116102d057829003601f168201915b50505050508152602001600182018054610306906108c4565b80601f0160208091040260200160405190810160405280929190818152602001828054610332906108c4565b801561037d5780601f106103545761010080835404028352916020019161037d565b820191905f5260205f20905b81548152906001019060200180831161036057829003601f168201915b505050505081526020016002820154815250509050805f015181602001518260400151935093509350509250925092565b5f602052815f5260405f2081815481106103c6575f80fd5b905f5260205f2090600302015f9150915050805f0180546103e6906108c4565b80601f0160208091040260200160405190810160405280929190818152602001828054610412906108c4565b801561045d5780601f106104345761010080835404028352916020019161045d565b820191905f5260205f20905b81548152906001019060200180831161044057829003601f168201915b505050505090806001018054610472906108c4565b80601f016020809104026020016040519081016040528092919081815260200182805461049e906108c4565b80156104e95780601f106104c0576101008083540402835291602001916104e9565b820191905f5260205f20905b8154815290600101906020018083116104cc57829003601f168201915b5050505050908060020154905083565b5f604051905090565b5f80fd5b5f80fd5b5f73ffffffffffffffffffffffffffffffffffffffff82169050919050565b5f6105338261050a565b9050919050565b61054381610529565b811461054d575f80fd5b50565b5f8135905061055e8161053a565b92915050565b5f6020828403121561057957610578610502565b5b5f61058684828501610550565b91505092915050565b5f819050919050565b6105a18161058f565b82525050565b5f6020820190506105ba5f830184610598565b92915050565b5f80fd5b5f80fd5b5f601f19601f8301169050919050565b7f4e487b71000000000000000000000000000000000000000000000000000000005f52604160045260245ffd5b61060e826105c8565b810181811067ffffffffffffffff8211171561062d5761062c6105d8565b5b80604052505050565b5f61063f6104f9565b905061064b8282610605565b919050565b5f67ffffffffffffffff82111561066a576106696105d8565b5b610673826105c8565b9050602081019050919050565b828183375f83830152505050565b5f6106a061069b84610650565b610636565b9050828152602081018484840111156106bc576106bb6105c4565b5b6106c7848285610680565b509392505050565b5f82601f8301126106e3576106e26105c0565b5b81356106f384826020860161068e565b91505092915050565b5f806040838503121561071257610711610502565b5b5f83013567ffffffffffffffff81111561072f5761072e610506565b5b61073b858286016106cf565b925050602083013567ffffffffffffffff81111561075c5761075b610506565b5b610768858286016106cf565b9150509250929050565b61077b8161058f565b8114610785575f80fd5b50565b5f8135905061079681610772565b92915050565b5f80604083850312156107b2576107b1610502565b5b5f6107bf85828601610550565b92505060206107d085828601610788565b9150509250929050565b5f81519050919050565b5f82825260208201905092915050565b5f5b838110156108115780820151818401526020810190506107f6565b5f8484015250505050565b5f610826826107da565b61083081856107e4565b93506108408185602086016107f4565b610849816105c8565b840191505092915050565b5f6060820190508181035f83015261086c818661081c565b90508181036020830152610880818561081c565b905061088f6040830184610598565b949350505050565b7f4e487b71000000000000000000000000000000000000000000000000000000005f52602260045260245ffd5b5f60028204905060018216806108db57607f821691505b6020821081036108ee576108ed610897565b5b50919050565b5f819050815f5260205f209050919050565b5f6020601f8301049050919050565b5f82821b905092915050565b5f600883026109507fffffffffffffffffffffffffffffffffffffffffffffffffffffffffffffffff82610915565b61095a8683610915565b95508019841693508086168417925050509392505050565b5f819050919050565b5f61099561099061098b8461058f565b610972565b61058f565b9050919050565b5f819050919050565b6109ae8361097b565b6109c26109ba8261099c565b848454610921565b825550505050565b5f90565b6109d66109ca565b6109e18184846109a5565b505050565b5b81811015610a04576109f95f826109ce565b6001810190506109e7565b5050565b601f821115610a4957610a1a816108f4565b610a2384610906565b81016020851015610a32578190505b610a46610a3e85610906565b8301826109e6565b50505b505050565b5f82821c905092915050565b5f610a695f1984600802610a4e565b1980831691505092915050565b5f610a818383610a5a565b9150826002028217905092915050565b610a9a826107da565b67ffffffffffffffff811115610ab357610ab26105d8565b5b610abd82546108c4565b610ac8828285610a08565b5f60209050601f831160018114610af9575f8415610ae7578287015190505b610af18582610a76565b865550610b58565b601f198416610b07866108f4565b5f5b82811015610b2e57848901518255600182019150602085019450602081019050610b09565b86831015610b4b5784890151610b47601f891682610a5a565b8355505b6001600288020188555050505b505050505050565b7f4e487b71000000000000000000000000000000000000000000000000000000005f52603260045260245ffdfea2646970667358221220203a3cc21e8aa1cddac070cbe2963127bce48544d775aed08b5076c05abbe82a64736f6c63430008150033",
  "immutableReferences": {},
  "source": "// SPDX-License-Identifier: MIT\r\npragma solidity ^0.8.0;\r\n\r\ncontract Evidence {\r\n    struct EvidenceData {\r\n        string hash;\r\n        string description;\r\n        uint timestamp;\r\n    }\r\n\r\n    mapping(address => EvidenceData[]) public evidences;\r\n\r\n    function submitEvidence(string memory _hash, string memory _description) public {\r\n        evidences[msg.sender].push(EvidenceData(_hash, _description, block.timestamp));\r\n    }\r\n\r\n    function getEvidenceCount(address user) public view returns (uint) {\r\n        return evidences[user].length;\r\n    }\r\n\r\n    function getEvidence(address user, uint index) public view returns (string memory, string memory, uint) {\r\n        EvidenceData memory data = evidences[user][index];\r\n        return (data.hash, data.description, data.timestamp);\r\n    }\r\n}",
  "sourcePath": "C:\\Users\\ashmita_b\\evidence-blockchain\\contracts\\evidence.sol",
  "compiler": {
    "name": "solc",
    "version": "0.8.21+commit.d9974bed.Emscripten.clang"
  },
  "schemaVersion": "3.4.16",
  "updatedAt": "2025-04-24T06:03:16.613Z",
  "devdoc": {
    "kind": "dev",
    "methods": {},
    "version": 1
  },
  "userdoc": {
    "kind": "user",
    "methods": {},
    "version": 1
  }
}